:020000040800F2
:10000000D8260020450100080D0900084108000815
:1000100009090008E1010008FB12000800000000C7
:10002000000000000000000000000000D90A0008E5
:10003000E50100080000000081090008B10C00087B
:100040005F0100085F0100085F0100085F01000810
:100050005F0100085F0100085F0100085F01000800
:100060005F0100082D020008250300085F01000859
:100070005F0100085F0100085F0100085F010008E0
:100080005F0100085F0100085F0100085F010008D0
:100090005F0100085F0100085F0100085F010008C0
:1000A0005F0100085F0100085F0100085F010008B0
:1000B0005F010008150D00085F0100085F010008DE
:1000C0005F0100085F0100085F0100085F01000890
:1000D0005F010008390E0008B50E0008F90F00088E
:1000E0005F0100085F0100085F0100085F01000870
:1000F0005F0100085F0100085F0100085F01000860
:100100005F0100085F0100085F0100085F0100084F
:100110005F0100085F0100085F0100085F0100083F
:100120005F0100085F0100085F0100085F0100082F
:10013000DFF80CD000F042F80048004751160008E4
:10014000D82600200648804706480047FEE7FEE71D
:10015000FEE7FEE7FEE7FEE7FEE7FEE7FEE7FEE777
:10016000B50C000831010008D2B201E000F8012B03
:10017000491EFBD270470022F6E710B513460A4627
:1001800004461946FFF7F0FF204610BD10B50022C7
:1001900000E0521C835C8C5CA34201D1002BF8D19F
:1001A000D8B2E1B2401A10BD034611F8012B00F895
:1001B000012B002AF9D1184670470000064C074D64
:1001C00006E0E06840F0010394E807009847103427
:1001D000AC42F6D3FFF7B0FF9C170008BC1700082D
:1001E00000BFFEE7704700B5034603E04FF47A70A6
:1001F00000F005F8181EA3F10103F7D100BD00EBD4
:10020000C001C9004FF0E022516100219161052138
:10021000116100BF4FF0E021096901F4803100292C
:10022000F8D004214FF0E022116170471FB508207B
:1002300000F0BCF8002869D035480068022849D190
:10024000344800683449086000220121334800F036
:1002500097FD3148006803281CDB02203049086004
:1002600000202C4908602C490860082000900C20D0
:100270008DF8050000208DF8040001208DF806009F
:10028000684600F0A7F8082000F08AF8002020490E
:1002900008601EE001202249086000201D49086016
:1002A0001D4908601B490860082000900C208DF84B
:1002B000050000208DF8040001208DF80600684636
:1002C00000F088F8082000F06BF800201049086062
:1002D00000BF1FBD01221146104800F051FD002053
:1002E0000C490860082002908DF80D0000208DF860
:1002F0000C0001208DF80E0002A800F06BF802201F
:1003000003490860082000F04BF800BF00BFE0E799
:100310006C000020780000207400002000040040E1
:10032000700000201CB5102000F040F890B30022AF
:1003300040F22551184800F046FFAA208DF8000031
:1003400001208DF801008DF802000321684601F0BC
:1003500024F98DF803000D208DF8040000240DE031
:100360001DF804100D4800F0C4FF00BF80210B48A9
:1003700000F0F2FE0028F9D0601CC4B2052CEFDBBF
:10038000012240F22551044800F01DFF102000F02A
:1003900007F800BF1CBD00000044004000380140C9
:1003A0000149086070470000140401400146002024
:1003B0000022074B1B6803EA0102054B14331B683C
:1003C0000B4013B10AB1012000E00020704700008B
:1003D00000040140002123498279002A3AD00A46CC
:1003E000126803689A430B461A600A1D1268036874
:1003F0009A430B1D1A60027911440A6803681A4374
:100400000A60184A0832126803689A43154B083389
:100410001A601A1D126803689A43124B0C331A6053
:100420004279102A0ED11A1F126803681A430D4B25
:1004300008331A601A1D126803681A43094B0C33FB
:100440001A600DE00749427911440A6803681A43AB
:100450000A6005E0027911440A6803689A430A6059
:10046000704700000004014030B500228B071C0FCC
:100470000F2303FA04F20B4B8C1053F824309343F0
:10048000084C8D1044F8253023468C1053F8243046
:100490008C07240F00FA04F42343024C8D1044F817
:1004A000253030BD080001402DE9F041024600250D
:1004B0000026002000230024002791F803C00CF040
:1004C0000F0591F803C00CF0100CBCF1000F03D025
:1004D00091F802C04CEA050591F800C0BCF1000F8C
:1004E00031D0146800202BE04FF0010C0CFA00F31F
:1004F000B1F800C00CEA03069E4220D183004FF001
:100500000F0C0CFA03F7BC4305FA03FC4CEA040495
:1005100091F803C0BCF1280F06D14FF0010C0CFA82
:1005200000FCC2F814C00AE091F803C0BCF1480F07
:1005300005D14FF0010C0CFA00FCC2F810C0401CB1
:100540000828D1D31460B1F800C0BCF1FF0F34DD2E
:10055000546800202EE000F1080C4FF0010808FA62
:100560000CF3B1F800C00CEA03069E4221D18300CF
:100570004FF00F0C0CFA03F7BC4305FA03FC4CEAEE
:10058000040491F803C0BCF1280F05D100F1080C58
:1005900008FA0CF8C2F8148091F803C0BCF1480FB7
:1005A00007D100F1080C4FF0010808FA0CF8C2F866
:1005B0001080401C0828CED35460BDE8F0810000B4
:1005C000F0B50A46002300240021002500F0004673
:1005D000B6F1004F02D11D4EF16901E01B4E71686A
:1005E000C0F3034583B200F44016B6F5401F08D1AE
:1005F00021F07061154E766826F07066134F7E60AC
:1006000012E000F48016B6F5801F06D1032606FA24
:1006100005F4A14341F0706106E0460D360103FA8E
:1006200006F6B14341F0706122B1460D360103FA7E
:1006300006F6314300F00046B6F1004F02D1034EFA
:10064000F16101E0014E7160F0BD00000000014069
:100650000AB1016100E041617047000010B53948FE
:1006600001683948FFF792FDD0B900F04FFA002039
:100670003649087036A000F0EDFE6420FFF7B3FDA8
:100680004FF400613748FFF776FD4FF400613648BC
:10069000FFF771FD0020354908803549087041E0B9
:1006A000344801682848FFF771FD08BB00F016FACE
:1006B000002000E0401C41F2B3518842FADD0120E5
:1006C000224908702CA000F0C5FE6420FFF78BFDC6
:1006D0004FF400612348FFF74EFD4FF400612248BC
:1006E000FFF749FD0020214908802149087019E0E1
:1006F000254801681448FFF749FD78B900F048FA29
:10070000002000E0401C41F2B3518842FADD642031
:10071000FFF769FD6420FFF766FD03E01B491CA09D
:1007200000F098FE4FF400611848FFF724FD4FF4E5
:1007300000610548FFF71FFD002017490880174991
:10074000087010BD64000020D81A00207C00002032
:10075000434F4E54494E554F55535F4D41544348B6
:10076000210D0A00D8020020D80A00202000002015
:1007700024000020680000204D414E55414C5F4D43
:1007800041544348210D0A0060000020D812002087
:100790003A25732E000000002200002025000020D2
:1007A00000B5ADF21C4D1C48007801281FD11B4A32
:1007B0001BA101A800F05EFE0120FFF720FD01A9AA
:1007C0001BA000F047FE4FF400611A48FFF7D3FC6E
:1007D0004FF400611148FFF7CEFC00201649088055
:1007E000164908700C4908700DF21C4D00BD0B49EC
:1007F0000FA000F02FFE4FF400610E48FFF7BBFC86
:100800004FF400610548FFF7B6FC00200A49088054
:100810000A49087000BFE7E77E000020D80A0020E0
:10082000434F44455F444154413A25730000000062
:1008300025730000D80200202000002024000020A2
:1008400000BFFEE700B585B001210C2000F0BAF82A
:1008500010208DF81300C002ADF8100003208DF8B1
:10086000120004A92548FFF71FFE10208DF8130081
:100870004001ADF8100003208DF8120004A92048B3
:10088000FFF712FE012251021D48FFF7E1FE01228F
:10089000D1031A48FFF7DCFE0121084600F092F868
:1008A0000121022000F06EF842F21070ADF808004D
:1008B0004FF4E150ADF804000020ADF80A00ADF8A7
:1008C000060001A90F4800F065FA002201210D4839
:1008D00000F056FA01210B4800F035FA1D208DF882
:1008E000000000208DF8010001208DF802008DF835
:1008F0000300684600F00CF805B000BD0008014098
:10090000000C01400004004000BFFEE770470000FB
:1009100070B5002100230F22C47804B3154C24685D
:1009200004F4E064C4F5E064210AC1F10403CA40A0
:10093000447804FA03F184781440214309010E4CF1
:100940000678A155047804F01F050124AC40057811
:100950006D11AD0005F1E025C5F8004109E004780E
:1009600004F01F050124AC40044D0678761145F8CB
:10097000264070BD0CED00E000E400E080E100E006
:100980007047000029B1064AD2690243044BDA617C
:1009900004E0034AD2698243014BDA6170470000E8
:1009A0000010024029B1064A12690243044B1A6141
:1009B00004E0034A12698243014B1A617047000048
:1009C0000010024029B1064A92690243044B9A6121
:1009D00004E0034A92698243014B9A617047000028
:1009E0000010024029B1064AD2680243044BDA6083
:1009F00004E0034AD2688243014BDA60704700008A
:100A00000010024030B500210022002400232D4DAB
:100A10006D6805F00C0121B1042905D0082923D106
:100A200005E0294D056022E0274D05601FE0254DBA
:100A30006D6805F47012234D6D6805F4803402254D
:100A400005EB92421CB9214D554305600BE01D4D4D
:100A50006D6805F400351DB11C4D5543056002E07D
:100A6000194D5543056002E0174D056000BF00BFFA
:100A7000144D6D6805F0F0010909154D6B5C0568B2
:100A8000DD4045600F4D6D6805F4E061090A104DC9
:100A90006B5C4568DD4085600A4D6D6805F460510A
:100AA000C90A0B4D6B5C4568DD40C560054D6D683E
:100AB00005F44041890B074D6B5CC568B5FBF3F548
:100AC000056130BD0010024000127A0000093D00AF
:100AD00000000020100000207047000010B5002426
:100AE0000DE00848015D084800F003FC00BF8021CC
:100AF000054800F031FB0028F9D0601C84B2092CB5
:100B0000EFDB10BD4A0000200044004010B5002477
:100B10000DE00848015D084800F0EBFB00BF8021B4
:100B2000054800F019FB0028F9D0601C84B2092C9C
:100B3000EFDB10BD2F0000200044004010B5002462
:100B400010E00A48015D0A4800F0D3FB02E009A06A
:100B500000F080FC8021064800F0FEFA0028F6D064
:100B6000601C84B2092CECDB10BD000026000020C4
:100B70000044004053656E645F4D616E75616C5F4B
:100B8000666C61675F776169742E2E2E0D0A000016
:100B900010B500240EE00A480068015D094800F025
:100BA000A8FB00BF8021074800F0D6FA0028F9D042
:100BB000601C84B202480068005D0028EBD110BDC3
:100BC0005C0000200044004010B500F001F810BDAA
:100BD0000CB50020019000903348006840F480304C
:100BE0003149086000BF3048006800F400300090D0
:100BF0000198401C0190009818B90198B0F5A06FB9
:100C0000F1D12948006800F4003010B101200090B3
:100C100001E0002000900098012843D1234800689B
:100C200040F01000214908600846006820F00700E5
:100C300008600846006840F0020008601A484068F2
:100C4000194948600846406848600846406840F4D2
:100C5000806048600846406820F47C104860084680
:100C6000406840F4E81048600846006840F0807032
:100C7000086000BF0C48006800F000700028F9D040
:100C80000948406820F0030007494860084640686A
:100C900040F00200486000BF0348406800F00C00CC
:100CA0000828F9D10CBD00000010024000200240CD
:100CB0007047000010B51348006840F0010011496A
:100CC000086008464068104908400E4948600846D8
:100CD00000680E4908400B4908600846006820F487
:100CE000802008600846406820F4FE0048604FF409
:100CF0001F008860FFF768FF4FF00060044908603C
:100D000010BD0000001002400000FFF8FFFFF6FEDB
:100D100008ED00E010B50121074800F020F8012897
:100D200008D106480068401C0449086001210248B7
:100D300000F006F810BD000000040040780000201C
:100D4000CA430282704721B1028842F00102028048
:100D500004E002884FF6FE731A400280704730B5F7
:100D60000246002000230024158A05EA0103958924
:100D700005EA010413B10CB1012000E0002030BDF0
:100D80001AB183890B43838102E083898B4383817A
:100D900070470000002202881D4B98420ED01D4B68
:100DA00098420BD0B0F1804F08D01B4B984205D031
:100DB0001A4B984202D01A4B984204D14FF68F73C7
:100DC0001A404B881A43174B984207D0164B98424B
:100DD00004D04FF6FF431A40CB881A4302808B8819
:100DE00083850B8803850A4B98420BD0094B9842A8
:100DF00008D00E4B984205D00D4B984202D00D4BB7
:100E0000984201D10B7A0386012383827047000048
:100E1000002C014000340140000400400008004064
:100E2000000C004000100040001400400040014051
:100E3000004401400048014010B540F225511848D7
:100E400000F097F950B3164800F04EFAC4B21548B6
:100E50000088B0F5006F02D30020124908801148C5
:100E600001880088401C0F4A10800F4844541046E7
:100E7000008802280CDB10460088401E0A49085CE6
:100E80000D2805D10948FFF78FF90120084908709E
:100E900040F22551024800F0F5F800BF10BD0000F7
:100EA0000038014022000020D8120020D81A00206B
:100EB0002500002010B540F22551454800F059F9B1
:100EC00000287CD0424800F00FFAC4B241480088A4
:100ED000B0F5006F02D300203E4908803D480188EC
:100EE0000088401C3B4A10803B4844541046008810
:100EF000C01F3949085C02282ED110460088801F87
:100F0000085C48BB10460088401F085C20BB1046A8
:100F10000088001F085C01281ED110460088C01EF2
:100F2000085CC8B910460088801E085C332813D1BD
:100F300010460088401E085C31280DD14FF4006136
:100F40002548FFF718F94FF400612448FFF713F91B
:100F500000202049088031E01E48008802282DDB4F
:100F60001C480088401E1C49085C0D2805D0194803
:100F70000088401E085C2E2820D117491748FFF72B
:100F800013F914480088401E1349085C0D2801D14C
:100F9000012000E00020012801D111490870012042
:100FA0001049087010490860002201210F48FFF71E
:100FB000E7FE00200E4908600E49087000E005E0D9
:100FC00040F22551024800F05DF800BF10BD00005E
:100FD0000044004020000020D8020020D80A002051
:100FE0007E00002024000020A48121420004004053
:100FF000780000207D00002010B540F225511D48EA
:1010000000F0B7F810B31B4800F06EF9C4B21A48EC
:10101000008800F40040C8B91748008800F48040F8
:1010200060B10A2C03D000201349088020E0124848
:10103000008840F400401049088019E00D2C06D1CA
:101040000D48008840F480400B49088010E00B48B0
:101050000088C0F30D000A490C5407480088401C62
:101060000549088008460088C72801DD002008805F
:1010700010BD0000004800401C0000201A000020A5
:101080001002002010B50022002340F66A14A1428D
:1010900000D100BF0A1201249440A3B2DC430480B3
:1010A00010BD21B1828942F40052828104E082891C
:1010B0004DF6FF731A4082817047000010B5044658
:1010C0002048844209D101218803FFF78BFC0021CD
:1010D0004FF48040FFF786FC32E01B48844209D180
:1010E00001214804FFF75EFC00214FF40030FFF7B8
:1010F00059FC25E01548844209D101218804FFF7F5
:1011000051FC00214FF48020FFF74CFC18E0104800
:10111000844209D10121C804FFF744FC00214FF4A7
:101120000020FFF73FFC0BE00A48844208D1012170
:101130000805FFF737FC00214FF48010FFF732FC61
:1011400010BD00000038014000440040004800404D
:10115000004C00400050004002460020B1F5007FE6
:1011600000D100BF13880B400BB1012000E000202C
:10117000704770B50246002400230025002040F689
:101180006A16B14200D100BFC1F3421501F01F033E
:10119000012606FA03F3012D02D19689334006E0B9
:1011A000022D02D1168A334001E0968A33400C1298
:1011B000012606FA04F41688344013B10CB101205C
:1011C00000E0002070BDF0B5034600240026002595
:1011D000002040F66A17B94200D100BF1846C1F39B
:1011E000421401F01F06012707FA06F5012C01D170
:1011F0000C3004E0022C01D1103000E014301AB1A0
:1012000007682F43076002E00768AF430760F0BD3F
:101210002DE9F04786B005460E460024A24600BFE1
:10122000A1460027B08900B100BF2F462C8A4CF69A
:10123000FF700440F08804432C82AC894EF6F31012
:101240000440B08831890843718908430443AC8164
:10125000AC8A4FF6FF400440B0890443AC8201A839
:10126000FFF7D0FB1F48874202D1DDF810A001E054
:10127000DDF80CA0A88900F4004040B10AEBCA00D8
:1012800000EB0A1031684900B0FBF1F807E00AEB07
:10129000CA0000EB0A1031688900B0FBF1F8642045
:1012A000B8FBF0F004012009642101FB1089A88932
:1012B00000F4004040B1322000EBC900B0FBF1F077
:1012C00000F00700044308E0322000EB091064211D
:1012D000B0FBF1F000F00F0004432C8106B0BDE834
:1012E000F08700000038014001468888C0F30800FC
:1012F0007047C1F308028280704700BFFEE700001C
:1013000010B586B00446012144F20400FFF75AFBF1
:101310002448FFF7D3FE18208DF817004FF4007013
:10132000ADF8140003208DF8160005A91E48FFF73C
:10133000BBF804208DF817000002ADF8140003205C
:101340008DF8160005A91848FFF7AEF825208DF88E
:10135000100001208DF8130003208DF811008DF886
:10136000120004A8FFF7D4FA00940020ADF80C0096
:101370000C20ADF80A000020ADF80800ADF806001A
:10138000ADF8040069460748FFF742FF012240F22A
:1013900025510448FFF717FF01210248FFF781FE9E
:1013A00006B010BD003801400008014010B586B0FD
:1013B000044601210420FFF705FB01214804FFF743
:1013C000E1FA2248FFF77AFE18208DF81700042072
:1013D000ADF8140003208DF8160005A91C48FFF78E
:1013E00063F804208DF817000820ADF8140005A953
:1013F0001748FFF759F801940020ADF810000C20B1
:10140000ADF80E000020ADF80C00ADF80A00ADF804
:10141000080001A90D48FFF7FBFE01210B48FFF76B
:1014200040FE012240F225510848FFF7CCFE26205D
:101430008DF8000001208DF803008DF801008DF873
:1014400002006846FFF764FA06B010BD0044004091
:10145000000801400FB4054B10B503A9044A0298D7
:1014600000F02BF810BC5DF814FB0000B515000867
:10147000140000200FB4084B10B504A902AA039869
:1014800000F01BF8044602A9002000F081F8204675
:1014900010BC5DF814FB00009115000802E008C8BC
:1014A000121F08C1002AFAD170477047002001E0DE
:1014B00001C1121F002AFBD170472DE9F84F994650
:1014C000924688460546002706E025280AD0514660
:1014D0004A4690476D1C7F1C28780028F5D1384675
:1014E000BDE8F88F002315F8011F18462E2915D1E5
:1014F00015F8011F04232A290DD06FF02F02297837
:10150000A1F13004092C09D800EB800002EB400067
:1015100008446D1CF3E758F8040B6D1C2A78002A68
:10152000DDD0632A07D0732A0FD0104651464A46B1
:1015300090477F1C2AE018F8042B8DF8002000212A
:101540008DF801106E46012103E058F8046B4FF04E
:10155000FF315A074FF0000401D409E0641C8442B3
:101560000BDA8C42FADB325D002AF7D105E0641C0D
:101570008C42FCDB305D0028F9D1274404E016F8EA
:10158000010B51464A469047641EF8D26D1CA3E7F2
:101590000A68531C0B601070704710B50246002398
:1015A000002002E0145C6340401C8842FADB1846CD
:1015B00010BD000000BF054A128802F04002002A58
:1015C000F9D0C2B2014B1B1D1A8070470038014090
:1015D0001FB501210820FFF7F5F91820ADF80C0020
:1015E00004208DF80F0003A91848FEF75DFF0121C4
:1015F0000846FFF7E7F903210120FEF735FF042134
:101600000120FEF731FF1820019000208DF808001E
:101610000C208DF8090001208DF80A0001A8FEF7C2
:10162000D9FE09208DF800000F208DF801008DF8FB
:10163000020001208DF803006846FFF769F90A20CF
:101640008DF800006846FFF763F91FBD000C0140EC
:1016500001210846FFF7B6F901212748FEF7B0FF40
:101660004FF41650FFF7A2FE4FF4E130FFF748FEAB
:10167000FFF764FAFFF7ACFFFFF7E4F800201F491B
:101680000860FFF72BFA6420FEF7ADFD4FF4006110
:101690001B48FEF770FD4FF400611A48FEF76BFD22
:1016A0000020194908801949087019A0FFF7D2FED7
:1016B00020E01F480068012806D11EA0FFF7CAFEDF
:1016C00000201B49086009E019480068022805D17C
:1016D0001DA0FFF7BFFE0020154908600B480078E9
:1016E000012801D1FFF75CF81B480078012801D1DF
:1016F000FEF7B4FFDDE7000000023000BC0121422C
:10170000D8020020D80A0020200000202400002059
:10171000496E697469616C697A6174696F6E20538E
:1017200075636365737366756C210D0A00000000B4
:101730007000002053776974636820756E69766560
:101740007273650D0A000000536574206164647251
:101750006573730D0A000000250000205265616466
:1017600044657669636549442E00000041545F5228
:1017700065616444657669636549440D0000000055
:1017800041545F4D414E55414C0D000041545F4363
:101790004F4E54494E554F5552530D00BC1700083B
:1017A00000000020800000009C1400083C18000885
:1017B0008000002058260000AC1400080000000043
:1017C00001020304010203040607080902040608D3
:1017D0000000000000000000000000000000000009
:1017E00000007E0008010000D4ABCD7E000801009F
:1017F00000D6ABCD7E0008010006FEABCD7E000812
:101800000100069BABCD7E0008010000D5EF417EB4
:1018100000080100020102DA5C1700086C170008DA
:101820008C1700088017000800000000000000006E
:0C183000000000000000000001000000AB
:0400000508000131BD
:00000001FF
